{
  "contractName": "Registrar",
  "abi": [
    {
      "inputs": [
        {
          "name": "domainsList",
          "type": "uint256"
        }
      ],
      "payable": false,
      "stateMutability": "nonpayable",
      "type": "constructor",
      "signature": "constructor"
    },
    {
      "constant": false,
      "inputs": [
        {
          "name": "email",
          "type": "bytes32"
        },
        {
          "name": "idnum",
          "type": "uint16"
        },
        {
          "name": "_domain",
          "type": "bytes32"
        },
        {
          "name": "_permreq",
          "type": "uint8"
        }
      ],
      "name": "registerVoter",
      "outputs": [],
      "payable": false,
      "stateMutability": "nonpayable",
      "type": "function",
      "signature": "0xd2c09a59"
    },
    {
      "constant": false,
      "inputs": [
        {
          "name": "email",
          "type": "bytes32"
        }
      ],
      "name": "givePermission",
      "outputs": [],
      "payable": false,
      "stateMutability": "nonpayable",
      "type": "function",
      "signature": "0x64bb5657"
    },
    {
      "constant": false,
      "inputs": [
        {
          "name": "_domain",
          "type": "bytes32"
        }
      ],
      "name": "addDomains",
      "outputs": [],
      "payable": false,
      "stateMutability": "nonpayable",
      "type": "function",
      "signature": "0x8a1d37ea"
    },
    {
      "constant": true,
      "inputs": [
        {
          "name": "domain",
          "type": "bytes32"
        }
      ],
      "name": "domainCheck",
      "outputs": [
        {
          "name": "",
          "type": "bool"
        }
      ],
      "payable": false,
      "stateMutability": "view",
      "type": "function",
      "signature": "0x55f16d7c"
    },
    {
      "constant": true,
      "inputs": [
        {
          "name": "email",
          "type": "bytes32"
        },
        {
          "name": "idnum",
          "type": "uint16"
        }
      ],
      "name": "checkReg",
      "outputs": [
        {
          "name": "",
          "type": "bool"
        }
      ],
      "payable": false,
      "stateMutability": "view",
      "type": "function",
      "signature": "0x64620858"
    },
    {
      "constant": true,
      "inputs": [
        {
          "name": "email",
          "type": "bytes32"
        }
      ],
      "name": "checkVoter",
      "outputs": [
        {
          "name": "",
          "type": "uint8"
        }
      ],
      "payable": false,
      "stateMutability": "view",
      "type": "function",
      "signature": "0x138d9455"
    },
    {
      "constant": false,
      "inputs": [
        {
          "name": "_ballotAddr",
          "type": "address"
        },
        {
          "name": "_ballotID",
          "type": "uint32"
        }
      ],
      "name": "setAddress",
      "outputs": [],
      "payable": false,
      "stateMutability": "nonpayable",
      "type": "function",
      "signature": "0x794459dd"
    },
    {
      "constant": true,
      "inputs": [
        {
          "name": "_ballotID",
          "type": "uint32"
        }
      ],
      "name": "getAddress",
      "outputs": [
        {
          "name": "",
          "type": "address"
        }
      ],
      "payable": false,
      "stateMutability": "view",
      "type": "function",
      "signature": "0x68501aee"
    },
    {
      "constant": true,
      "inputs": [
        {
          "name": "_email",
          "type": "bytes32"
        }
      ],
      "name": "getPermission",
      "outputs": [
        {
          "name": "",
          "type": "uint8"
        }
      ],
      "payable": false,
      "stateMutability": "view",
      "type": "function",
      "signature": "0x33d33167"
    }
  ],
  "bytecode": "0x608060405234801561001057600080fd5b506040516020806109e08339810180604052602081101561003057600080fd5b8101908080519060200190929190505050600080018060018154018082558091505090600182039060005260206000200160007f676d61696c2e636f6d000000000000000000000000000000000000000000000090919091505550600080018060018154018082558091505090600182039060005260206000200160007f7961686f6f2e636f6d00000000000000000000000000000000000000000000009091909150555033600960006101000a81548173ffffffffffffffffffffffffffffffffffffffff021916908373ffffffffffffffffffffffffffffffffffffffff160217905550506108ba806101266000396000f3fe608060405260043610610099576000357c0100000000000000000000000000000000000000000000000000000000900463ffffffff168063138d94551461009e57806333d33167146100f357806355f16d7c14610148578063646208581461019b57806364bb5657146101fc57806368501aee14610237578063794459dd146102b85780638a1d37ea14610319578063d2c09a5914610354575b600080fd5b3480156100aa57600080fd5b506100d7600480360360208110156100c157600080fd5b81019080803590602001909291905050506103b4565b604051808260ff1660ff16815260200191505060405180910390f35b3480156100ff57600080fd5b5061012c6004803603602081101561011657600080fd5b810190808035906020019092919050505061046d565b604051808260ff1660ff16815260200191505060405180910390f35b34801561015457600080fd5b506101816004803603602081101561016b57600080fd5b8101908080359060200190929190505050610499565b604051808215151515815260200191505060405180910390f35b3480156101a757600080fd5b506101e2600480360360408110156101be57600080fd5b8101908080359060200190929190803561ffff1690602001909291905050506104f5565b604051808215151515815260200191505060405180910390f35b34801561020857600080fd5b506102356004803603602081101561021f57600080fd5b8101908080359060200190929190505050610568565b005b34801561024357600080fd5b506102766004803603602081101561025a57600080fd5b81019080803563ffffffff1690602001909291905050506105f7565b604051808273ffffffffffffffffffffffffffffffffffffffff1673ffffffffffffffffffffffffffffffffffffffff16815260200191505060405180910390f35b3480156102c457600080fd5b50610317600480360360408110156102db57600080fd5b81019080803573ffffffffffffffffffffffffffffffffffffffff169060200190929190803563ffffffff169060200190929190505050610643565b005b34801561032557600080fd5b506103526004803603602081101561033c57600080fd5b8101908080359060200190929190505050610709565b005b34801561036057600080fd5b506103b26004803603608081101561037757600080fd5b8101908080359060200190929190803561ffff16906020019092919080359060200190929190803560ff169060200190929190505050610796565b005b6000806000600301600084815260200190815260200160002060009054906101000a900461ffff1661ffff1614156103ef5760019050610468565b3373ffffffffffffffffffffffffffffffffffffffff166000600101600084815260200190815260200160002060009054906101000a900473ffffffffffffffffffffffffffffffffffffffff1673ffffffffffffffffffffffffffffffffffffffff161415156104635760029050610468565b600090505b919050565b600080600201600083815260200190815260200160002060009054906101000a900460ff169050919050565b600080600090505b60008001805490508110156104ea578260008001828154811015156104c257fe5b906000526020600020015414156104dd5760019150506104f0565b80806001019150506104a1565b50600090505b919050565b6000806000600301600085815260200190815260200160002060009054906101000a900461ffff1661ffff1614801561054f57506000600102600060040160008461ffff1661ffff16815260200190815260200160002054145b1561055d5760019050610562565b600090505b92915050565b600960009054906101000a900473ffffffffffffffffffffffffffffffffffffffff1673ffffffffffffffffffffffffffffffffffffffff163373ffffffffffffffffffffffffffffffffffffffff161415156105c457600080fd5b60016000600201600083815260200190815260200160002060006101000a81548160ff021916908360ff16021790555050565b6000600560000160008363ffffffff1663ffffffff16815260200190815260200160002060009054906101000a900473ffffffffffffffffffffffffffffffffffffffff169050919050565b81600560000160008363ffffffff1663ffffffff16815260200190815260200160002060006101000a81548173ffffffffffffffffffffffffffffffffffffffff021916908373ffffffffffffffffffffffffffffffffffffffff16021790555080600560010160008473ffffffffffffffffffffffffffffffffffffffff1673ffffffffffffffffffffffffffffffffffffffff16815260200190815260200160002060006101000a81548163ffffffff021916908363ffffffff1602179055505050565b600960009054906101000a900473ffffffffffffffffffffffffffffffffffffffff1673ffffffffffffffffffffffffffffffffffffffff163373ffffffffffffffffffffffffffffffffffffffff1614151561076557600080fd5b6000800181908060018154018082558091505090600182039060005260206000200160009091929091909150555050565b600015156107a383610499565b151514156107b057600080fd5b826000600301600086815260200190815260200160002060006101000a81548161ffff021916908361ffff160217905550806000600201600086815260200190815260200160002060006101000a81548160ff021916908360ff160217905550336000600101600086815260200190815260200160002060006101000a81548173ffffffffffffffffffffffffffffffffffffffff021916908373ffffffffffffffffffffffffffffffffffffffff16021790555083600060040160008561ffff1661ffff168152602001908152602001600020819055505050505056fea165627a7a72305820b778853a929a00709722b229c69f038bb0dba9aac8a1cda100ec3758bfecdff00029",
  "source": "pragma solidity ^0.5.0;\n\ncontract Registrar {\n\n    struct Voter {\n        bytes32[] allowedDomains;\n        mapping (bytes32 => address) voterAddr;\n        mapping (bytes32 => uint8) createPerm;\n        mapping (bytes32 => uint16) voterID;\n        mapping (uint16 => bytes32) voterEmail;\n    }\n\n    struct Ballot {\n        mapping (uint32 => address) votingAddress;\n        mapping (address => uint32) ballotID;\n        mapping (uint64 => uint8) whitelistCheck;\n        mapping (bytes32 => uint8) allowedVoters;\n    }\n\n    Voter v;\n    Ballot b;\n    address owner;\n\n    constructor(uint domainsList) public {\n        v.allowedDomains.push('gmail.com');\n        v.allowedDomains.push('yahoo.com');\n        owner = msg.sender;\n    }\n\n    modifier onlyOwner {\n        require(msg.sender == owner);\n        _;\n    }\n\n    function registerVoter(bytes32 email, uint16 idnum, bytes32 _domain, uint8 _permreq) public {\n        if (domainCheck(_domain) == false) revert();\n        v.voterID[email] = idnum;\n        v.createPerm[email] = _permreq;\n        v.voterAddr[email] = msg.sender;\n        v.voterEmail[idnum] = email;\n    }\n\n    function givePermission(bytes32 email) public onlyOwner {\n        v.createPerm[email] = 1;\n    }\n\n    function addDomains(bytes32 _domain) public onlyOwner {\n        v.allowedDomains.push(_domain);\n    }\n\n    function domainCheck(bytes32 domain) public view returns (bool) {\n        for(uint i = 0; i < v.allowedDomains.length; i++) {\n            if (v.allowedDomains[i] == domain) {\n                return true;\n            }\n        }\n        return false;\n    }\n\n    function checkReg(bytes32 email, uint16 idnum) public view returns (bool) {\n        if (v.voterID[email] == 0 && v.voterEmail[idnum] == 0) return true;\n        else return false;\n    }\n\n    function checkVoter(bytes32 email) public view returns (uint8) {\n        if (v.voterID[email] == 0) return 1;\n        if (v.voterAddr[email] != msg.sender) return 2;\n        else return 0;\n    }\n\n    function setAddress(address _ballotAddr, uint32 _ballotID) public {\n        b.votingAddress[_ballotID] = _ballotAddr;\n        b.ballotID[_ballotAddr] = _ballotID;\n    }\n\n    function getAddress(uint32 _ballotID) public view returns (address) {\n        return b.votingAddress[_ballotID];\n    }\n\n    function getPermission(bytes32 _email) public view returns (uint8) {\n        return v.createPerm[_email];\n    }\n}\n",
  "sourcePath": "/Users/ayushsethi/Desktop/BroncoVotes/contracts/Registrar.sol",
  "compiler": {
    "name": "solc",
    "version": "0.5.0+commit.1d4f565a.Emscripten.clang"
  },
  "schemaVersion": "3.0.2",
  "updatedAt": "2019-04-20T16:34:59.314Z",
  "devdoc": {
    "methods": {}
  },
  "userdoc": {
    "methods": {}
  }
}