{
  "contractName": "Registrar",
  "abi": [
    {
      "inputs": [
        {
          "name": "domainsList",
          "type": "uint256"
        }
      ],
      "payable": false,
      "stateMutability": "nonpayable",
      "type": "constructor",
      "signature": "constructor"
    },
    {
      "constant": false,
      "inputs": [
        {
          "name": "_email",
          "type": "bytes32"
        },
        {
          "name": "_ballotId",
          "type": "uint32"
        },
        {
          "name": "_domain",
          "type": "bytes32"
        },
        {
          "name": "_voterPass",
          "type": "bytes32"
        }
      ],
      "name": "registerVoter",
      "outputs": [],
      "payable": false,
      "stateMutability": "nonpayable",
      "type": "function",
      "signature": "0x2d8b0274"
    },
    {
      "constant": true,
      "inputs": [
        {
          "name": "domain",
          "type": "bytes32"
        }
      ],
      "name": "domainCheck",
      "outputs": [
        {
          "name": "",
          "type": "bool"
        }
      ],
      "payable": false,
      "stateMutability": "view",
      "type": "function",
      "signature": "0x55f16d7c"
    },
    {
      "constant": true,
      "inputs": [
        {
          "name": "email",
          "type": "bytes32"
        },
        {
          "name": "ballotId",
          "type": "uint32"
        }
      ],
      "name": "checkReg",
      "outputs": [
        {
          "name": "",
          "type": "bool"
        }
      ],
      "payable": false,
      "stateMutability": "view",
      "type": "function",
      "signature": "0x526bcf1f"
    },
    {
      "constant": true,
      "inputs": [
        {
          "name": "email",
          "type": "bytes32"
        },
        {
          "name": "ballotId",
          "type": "uint32"
        },
        {
          "name": "voterPass",
          "type": "bytes32"
        }
      ],
      "name": "checkVoter",
      "outputs": [
        {
          "name": "",
          "type": "uint8"
        }
      ],
      "payable": false,
      "stateMutability": "view",
      "type": "function",
      "signature": "0x2dd4fad3"
    },
    {
      "constant": false,
      "inputs": [
        {
          "name": "_ballotAddr",
          "type": "address"
        },
        {
          "name": "_ballotId",
          "type": "uint32"
        },
        {
          "name": "_ballotPass",
          "type": "bytes32"
        }
      ],
      "name": "registerBallot",
      "outputs": [],
      "payable": false,
      "stateMutability": "nonpayable",
      "type": "function",
      "signature": "0xc2a18734"
    },
    {
      "constant": true,
      "inputs": [
        {
          "name": "_ballotID",
          "type": "uint32"
        }
      ],
      "name": "getAddress",
      "outputs": [
        {
          "name": "",
          "type": "address"
        }
      ],
      "payable": false,
      "stateMutability": "view",
      "type": "function",
      "signature": "0x68501aee"
    }
  ],
  "bytecode": "0x608060405234801561001057600080fd5b50604051602080610a418339810180604052602081101561003057600080fd5b8101908080519060200190929190505050600080018060018154018082558091505090600182039060005260206000200160007f676d61696c2e636f6d000000000000000000000000000000000000000000000090919091505550600080018060018154018082558091505090600182039060005260206000200160007f7961686f6f2e636f6d00000000000000000000000000000000000000000000009091909150555033600a60006101000a81548173ffffffffffffffffffffffffffffffffffffffff021916908373ffffffffffffffffffffffffffffffffffffffff1602179055505061091b806101266000396000f3fe608060405260043610610078576000357c0100000000000000000000000000000000000000000000000000000000900463ffffffff1680632d8b02741461007d5780632dd4fad3146100dc578063526bcf1f1461014b57806355f16d7c146101ae57806368501aee14610201578063c2a1873414610282575b600080fd5b34801561008957600080fd5b506100da600480360360808110156100a057600080fd5b8101908080359060200190929190803563ffffffff16906020019092919080359060200190929190803590602001909291905050506102ed565b005b3480156100e857600080fd5b5061012f600480360360608110156100ff57600080fd5b8101908080359060200190929190803563ffffffff16906020019092919080359060200190929190505050610449565b604051808260ff1660ff16815260200191505060405180910390f35b34801561015757600080fd5b506101946004803603604081101561016e57600080fd5b8101908080359060200190929190803563ffffffff16906020019092919050505061059c565b604051808215151515815260200191505060405180910390f35b3480156101ba57600080fd5b506101e7600480360360208110156101d157600080fd5b8101908080359060200190929190505050610697565b604051808215151515815260200191505060405180910390f35b34801561020d57600080fd5b506102406004803603602081101561022457600080fd5b81019080803563ffffffff1690602001909291905050506106f3565b604051808273ffffffffffffffffffffffffffffffffffffffff1673ffffffffffffffffffffffffffffffffffffffff16815260200191505060405180910390f35b34801561028e57600080fd5b506102eb600480360360608110156102a557600080fd5b81019080803573ffffffffffffffffffffffffffffffffffffffff169060200190929190803563ffffffff1690602001909291908035906020019092919050505061073f565b005b600015156102fa83610697565b1515141561030757600080fd5b336000600101600086815260200190815260200160002060006101000a81548173ffffffffffffffffffffffffffffffffffffffff021916908373ffffffffffffffffffffffffffffffffffffffff160217905550826000600301600086815260200190815260200160002060006101000a81548163ffffffff021916908363ffffffff160217905550806000600401600086815260200190815260200160002081905550600560000160008463ffffffff1663ffffffff16815260200190815260200160002060009054906101000a900473ffffffffffffffffffffffffffffffffffffffff166000600201600086815260200190815260200160002060006101000a81548173ffffffffffffffffffffffffffffffffffffffff021916908373ffffffffffffffffffffffffffffffffffffffff16021790555050505050565b60008073ffffffffffffffffffffffffffffffffffffffff166000600101600086815260200190815260200160002060009054906101000a900473ffffffffffffffffffffffffffffffffffffffff1673ffffffffffffffffffffffffffffffffffffffff1614156104be5760019050610595565b3373ffffffffffffffffffffffffffffffffffffffff166000600101600086815260200190815260200160002060009054906101000a900473ffffffffffffffffffffffffffffffffffffffff1673ffffffffffffffffffffffffffffffffffffffff16141580610545575081600060040160008681526020019081526020016000205414155b8061058257508263ffffffff166000600301600086815260200190815260200160002060009054906101000a900463ffffffff1663ffffffff1614155b156105905760029050610595565b600090505b9392505050565b60008073ffffffffffffffffffffffffffffffffffffffff166000600101600085815260200190815260200160002060009054906101000a900473ffffffffffffffffffffffffffffffffffffffff1673ffffffffffffffffffffffffffffffffffffffff1614801561067e5750600073ffffffffffffffffffffffffffffffffffffffff16600560000160008463ffffffff1663ffffffff16815260200190815260200160002060009054906101000a900473ffffffffffffffffffffffffffffffffffffffff1673ffffffffffffffffffffffffffffffffffffffff1614155b1561068c5760019050610691565b600090505b92915050565b600080600090505b60008001805490508110156106e8578260008001828154811015156106c057fe5b906000526020600020015414156106db5760019150506106ee565b808060010191505061069f565b50600090505b919050565b6000600560000160008363ffffffff1663ffffffff16815260200190815260200160002060009054906101000a900473ffffffffffffffffffffffffffffffffffffffff169050919050565b82600560000160008463ffffffff1663ffffffff16815260200190815260200160002060006101000a81548173ffffffffffffffffffffffffffffffffffffffff021916908373ffffffffffffffffffffffffffffffffffffffff16021790555081600560010160008573ffffffffffffffffffffffffffffffffffffffff1673ffffffffffffffffffffffffffffffffffffffff16815260200190815260200160002060006101000a81548163ffffffff021916908363ffffffff16021790555033600560020160008463ffffffff1663ffffffff16815260200190815260200160002060006101000a81548173ffffffffffffffffffffffffffffffffffffffff021916908373ffffffffffffffffffffffffffffffffffffffff16021790555081600560030160003373ffffffffffffffffffffffffffffffffffffffff1673ffffffffffffffffffffffffffffffffffffffff16815260200190815260200160002060006101000a81548163ffffffff021916908363ffffffff16021790555080600560040160008463ffffffff1663ffffffff1681526020019081526020016000208190555050505056fea165627a7a72305820d38f29bfe6416c6b52df3e2f9f10156b1d5344c94ea68952ce8457d6bb2400440029",
  "source": "pragma solidity ^0.5.0;\n\ncontract Registrar {\n\n    struct Voter {\n        bytes32[] allowedDomains;\n        mapping (bytes32 => address) voterAddr;\n        mapping (bytes32 => address) ballotAddr;\n        mapping (bytes32 => uint32) ballotId;\n        mapping (bytes32 => bytes32) voterPass;\n    }\n\n    struct Ballot {\n        mapping (uint32 => address) ballotAddr;\n        mapping(address => uint32) ballotId;\n        mapping(uint32 => address) creatorAddr;\n        mapping(address => uint32) ballotIdfromCreatorAddr;\n        mapping(uint32 => bytes32) ballotPass;\n    }\n\n    Voter v;\n    Ballot b;\n    address owner;\n\n    constructor(uint domainsList) public {\n        v.allowedDomains.push('gmail.com');\n        v.allowedDomains.push('yahoo.com');\n        owner = msg.sender;\n    }\n\n    modifier onlyOwner {\n        require(msg.sender == owner);\n        _;\n    }\n\n    //also check if the email is already registered or not\n    //also add ballotaddr if required\n    function registerVoter(bytes32 _email, uint32 _ballotId, bytes32 _domain,bytes32 _voterPass) public {\n        if (domainCheck(_domain) == false) revert();\n        v.voterAddr[_email] = msg.sender;\n        v.ballotId[_email] = _ballotId;\n        v.voterPass[_email] = _voterPass;\n        v.ballotAddr[_email] = b.ballotAddr[_ballotId];\n    }\n\n    function domainCheck(bytes32 domain) public view returns (bool) {\n        for(uint i = 0; i < v.allowedDomains.length; i++) {\n            if (v.allowedDomains[i] == domain) {\n                return true;\n            }\n        }\n        return false;\n    }\n\n    //also add if ballot id is different then also same email is valid\n    function checkReg(bytes32 email,uint32 ballotId) public view returns (bool) {\n        if ((v.voterAddr[email] == address(0x0))&& b.ballotAddr[ballotId] != address(0x0)) return true;\n        else return false;\n    }\n\n    // case 1 when email id is not registered case 2 when email , sender's address, ballotid, password doesnt match\n    function checkVoter(bytes32 email,uint32 ballotId,bytes32 voterPass) public view returns (uint8) {\n        if (v.voterAddr[email] == address(0x0)) return 1;\n        if (v.voterAddr[email] != msg.sender || v.voterPass[email] != voterPass || v.ballotId[email] != ballotId) return 2;\n        else return 0;\n    }\n\n    //this is setAddress function of original file\n    // also check before registering new ballot\n    function registerBallot(address _ballotAddr, uint32 _ballotId, bytes32 _ballotPass) public {\n        b.ballotAddr[_ballotId] = _ballotAddr;\n        b.ballotId[_ballotAddr] = _ballotId;\n        b.creatorAddr[_ballotId] = msg.sender;\n        b.ballotIdfromCreatorAddr[msg.sender] = _ballotId;\n        b.ballotPass[_ballotId] = _ballotPass; \n    }\n\n    function getAddress(uint32 _ballotID) public view returns (address) {\n        return b.ballotAddr[_ballotID];\n    }\n\n\n}\n",
  "sourcePath": "/Users/ayushsethi/Desktop/BroncoVotes/contracts/Registrar.sol",
  "compiler": {
    "name": "solc",
    "version": "0.5.0+commit.1d4f565a.Emscripten.clang"
  },
  "schemaVersion": "3.0.2",
  "updatedAt": "2019-04-21T13:12:47.784Z",
  "devdoc": {
    "methods": {}
  },
  "userdoc": {
    "methods": {}
  }
}