{
  "contractName": "Voting",
  "abi": [
    {
      "inputs": [
        {
          "name": "_ballotId",
          "type": "uint32"
        },
        {
          "name": "_title",
          "type": "string"
        },
        {
          "name": "_creator",
          "type": "address"
        }
      ],
      "payable": false,
      "stateMutability": "nonpayable",
      "type": "constructor",
      "signature": "constructor"
    },
    {
      "constant": false,
      "inputs": [
        {
          "name": "_candidates",
          "type": "bytes32[]"
        }
      ],
      "name": "setCandidates",
      "outputs": [],
      "payable": false,
      "stateMutability": "nonpayable",
      "type": "function",
      "signature": "0xd05841a0"
    },
    {
      "constant": false,
      "inputs": [],
      "name": "hashCandidates",
      "outputs": [],
      "payable": false,
      "stateMutability": "nonpayable",
      "type": "function",
      "signature": "0x6cfd8b82"
    },
    {
      "constant": false,
      "inputs": [
        {
          "name": "_votes",
          "type": "uint256[]"
        },
        {
          "name": "_email",
          "type": "bytes32"
        },
        {
          "name": "_candidates",
          "type": "bytes32[]"
        }
      ],
      "name": "voteForCandidate",
      "outputs": [],
      "payable": false,
      "stateMutability": "nonpayable",
      "type": "function",
      "signature": "0xc9ccaea1"
    },
    {
      "constant": false,
      "inputs": [
        {
          "name": "cHash",
          "type": "bytes32"
        }
      ],
      "name": "votesFor",
      "outputs": [
        {
          "name": "",
          "type": "uint256"
        }
      ],
      "payable": false,
      "stateMutability": "nonpayable",
      "type": "function",
      "signature": "0x922133e3"
    },
    {
      "constant": false,
      "inputs": [
        {
          "name": "cHash",
          "type": "bytes32"
        }
      ],
      "name": "totalVotesFor",
      "outputs": [
        {
          "name": "",
          "type": "uint256"
        }
      ],
      "payable": false,
      "stateMutability": "nonpayable",
      "type": "function",
      "signature": "0x2f265cf7"
    },
    {
      "constant": false,
      "inputs": [
        {
          "name": "cHash",
          "type": "bytes32"
        }
      ],
      "name": "validCandidate",
      "outputs": [
        {
          "name": "",
          "type": "bool"
        }
      ],
      "payable": false,
      "stateMutability": "nonpayable",
      "type": "function",
      "signature": "0x392e6678"
    },
    {
      "constant": true,
      "inputs": [
        {
          "name": "_ballotID",
          "type": "uint64"
        }
      ],
      "name": "candidateList",
      "outputs": [
        {
          "name": "",
          "type": "bytes32[]"
        }
      ],
      "payable": false,
      "stateMutability": "view",
      "type": "function",
      "signature": "0xa711b878"
    },
    {
      "constant": true,
      "inputs": [],
      "name": "checkVoteattempts",
      "outputs": [
        {
          "name": "",
          "type": "bool"
        }
      ],
      "payable": false,
      "stateMutability": "view",
      "type": "function",
      "signature": "0x6ec4847a"
    },
    {
      "constant": true,
      "inputs": [],
      "name": "getTitle",
      "outputs": [
        {
          "name": "",
          "type": "string"
        }
      ],
      "payable": false,
      "stateMutability": "view",
      "type": "function",
      "signature": "0xff3c1a8f"
    }
  ],
  "bytecode": "0x60806040523480156200001157600080fd5b506040516200120238038062001202833981018060405260608110156200003757600080fd5b810190808051906020019092919080516401000000008111156200005a57600080fd5b828101905060208101848111156200007157600080fd5b81518560018202830111640100000000821117156200008f57600080fd5b50509291906020018051906020019092919050505082600460000160006101000a81548163ffffffff021916908363ffffffff1602179055508160046001019080519060200190620000e3929190620001b6565b5080600460020160006101000a81548173ffffffffffffffffffffffffffffffffffffffff021916908373ffffffffffffffffffffffffffffffffffffffff16021790555080600460030160006101000a81548173ffffffffffffffffffffffffffffffffffffffff021916908373ffffffffffffffffffffffffffffffffffffffff16021790555080601060006101000a81548173ffffffffffffffffffffffffffffffffffffffff021916908373ffffffffffffffffffffffffffffffffffffffff16021790555050505062000265565b828054600181600116156101000203166002900490600052602060002090601f016020900481019282601f10620001f957805160ff19168380011785556200022a565b828001600101855582156200022a579182015b82811115620002295782518255916020019190600101906200020c565b5b5090506200023991906200023d565b5090565b6200026291905b808211156200025e57600081600090555060010162000244565b5090565b90565b610f8d80620002756000396000f3fe608060405260043610610099576000357c0100000000000000000000000000000000000000000000000000000000900463ffffffff1680632f265cf71461009e578063392e6678146100ed5780636cfd8b82146101405780636ec4847a14610157578063922133e314610186578063a711b878146101d5578063c9ccaea11461026f578063d05841a0146103d2578063ff3c1a8f14610497575b600080fd5b3480156100aa57600080fd5b506100d7600480360360208110156100c157600080fd5b8101908080359060200190929190505050610527565b6040518082815260200191505060405180910390f35b3480156100f957600080fd5b506101266004803603602081101561011057600080fd5b8101908080359060200190929190505050610560565b604051808215151515815260200191505060405180910390f35b34801561014c57600080fd5b506101556105db565b005b34801561016357600080fd5b5061016c6107d5565b604051808215151515815260200191505060405180910390f35b34801561019257600080fd5b506101bf600480360360208110156101a957600080fd5b8101908080359060200190929190505050610844565b6040518082815260200191505060405180910390f35b3480156101e157600080fd5b50610218600480360360208110156101f857600080fd5b81019080803567ffffffffffffffff16906020019092919050505061087d565b6040518080602001828103825283818151815260200191508051906020019060200280838360005b8381101561025b578082015181840152602081019050610240565b505050509050019250505060405180910390f35b34801561027b57600080fd5b506103d06004803603606081101561029257600080fd5b81019080803590602001906401000000008111156102af57600080fd5b8201836020820111156102c157600080fd5b803590602001918460208302840111640100000000831117156102e357600080fd5b919080806020026020016040519081016040528093929190818152602001838360200280828437600081840152601f19601f820116905080830192505050505050509192919290803590602001909291908035906020019064010000000081111561034d57600080fd5b82018360208201111561035f57600080fd5b8035906020019184602083028401116401000000008311171561038157600080fd5b919080806020026020016040519081016040528093929190818152602001838360200280828437600081840152601f19601f8201169050808301925050505050505091929192905050506108f3565b005b3480156103de57600080fd5b50610495600480360360208110156103f557600080fd5b810190808035906020019064010000000081111561041257600080fd5b82018360208201111561042457600080fd5b8035906020019184602083028401116401000000008311171561044657600080fd5b919080806020026020016040519081016040528093929190818152602001838360200280828437600081840152601f19601f820116905080830192505050505050509192919290505050610a4f565b005b3480156104a357600080fd5b506104ac610b19565b6040518080602001828103825283818151815260200191508051906020019080838360005b838110156104ec5780820151818401526020810190506104d1565b50505050905090810190601f1680156105195780820380516001836020036101000a031916815260200191505b509250505060405180910390f35b600080151561053583610560565b1515141561054257600080fd5b60006002016000838152602001908152602001600020549050919050565b600080600090505b60008001805490508110156105d057600080018181548110151561058857fe5b9060005260206000200154600a819055508260006001016000600a5481526020019081526020016000205414156105c35760019150506105d6565b8080600101915050610568565b50600090505b919050565b601060009054906101000a900473ffffffffffffffffffffffffffffffffffffffff1673ffffffffffffffffffffffffffffffffffffffff163373ffffffffffffffffffffffffffffffffffffffff1614151561063757600080fd5b6001600b8190555060008090505b60008001805490508110156107d257600080018181548110151561066557fe5b9060005260206000200154600a81905550610681600a54610bbe565b60089080519060200190610696929190610dfd565b50600860405160200180828054600181600116156101000203166002900480156106f75780601f106106d55761010080835404028352918201916106f7565b820191906000526020600020905b8154815290600101906020018083116106e3575b50509150506040516020818303038152906040528051906020012060006001016000600a54815260200190815260200160002081905550600b5460006002016000600860405160200180828054600181600116156101000203166002900480156107985780601f10610776576101008083540402835291820191610798565b820191906000526020600020905b815481529060010190602001808311610784575b5050915050604051602081830303815290604052805190602001208152602001908152602001600020819055508080600101915050610645565b50565b60006001600360000160003373ffffffffffffffffffffffffffffffffffffffff1673ffffffffffffffffffffffffffffffffffffffff16815260200190815260200160002060009054906101000a900460ff1660ff1610151561083c5760009050610841565b600190505b90565b600080151561085283610560565b1515141561085f57600080fd5b60006002016000838152602001908152602001600020549050919050565b60606000151561088c83610dbb565b1515141561089957600080fd5b600080018054806020026020016040519081016040528092919081815260200182805480156108e757602002820191906000526020600020905b8154815260200190600101908083116108d3575b50505050509050919050565b82600d9080519060200190610909929190610e7d565b5080600e9080519060200190610920929190610eca565b506001600360000160003373ffffffffffffffffffffffffffffffffffffffff1673ffffffffffffffffffffffffffffffffffffffff16815260200190815260200160002060008282829054906101000a900460ff160192506101000a81548160ff021916908360ff16021790555060008090505b600e80549050811015610a4957600e818154811015156109b157fe5b9060005260206000200154600a8190555060006001016000600a54815260200190815260200160002054600c81905550600015156109f0600c54610560565b151514156109fd57600080fd5b600d81815481101515610a0c57fe5b9060005260206000200154600b81905550600b5460006002016000600c548152602001908152602001600020819055508080600101915050610995565b50505050565b601060009054906101000a900473ffffffffffffffffffffffffffffffffffffffff1673ffffffffffffffffffffffffffffffffffffffff163373ffffffffffffffffffffffffffffffffffffffff16141515610aab57600080fd5b60008090505b8151811015610b15578181815181101515610ac857fe5b90602001906020020151600a8190555060008001600a5490806001815401808255809150509060018203906000526020600020016000909192909190915055508080600101915050610ab1565b5050565b606060046001018054600181600116156101000203166002900480601f016020809104026020016040519081016040528092919081815260200182805460018160011615610100020316600290048015610bb45780601f10610b8957610100808354040283529160200191610bb4565b820191906000526020600020905b815481529060010190602001808311610b9757829003601f168201915b5050505050905090565b60608060206040519080825280601f01601f191660200182016040528015610bf55781602001600182028038833980820191505090505b509050600080905060008090505b6020811015610cc45760008160080260020a866001900402600102905060007f010000000000000000000000000000000000000000000000000000000000000002817effffffffffffffffffffffffffffffffffffffffffffffffffffffffffffff1916141515610cb657808484815181101515610c7d57fe5b9060200101907effffffffffffffffffffffffffffffffffffffffffffffffffffffffffffff1916908160001a90535082806001019350505b508080600101915050610c03565b506060816040519080825280601f01601f191660200182016040528015610cfa5781602001600182028038833980820191505090505b50905060008090505b82811015610daf578381815181101515610d1957fe5b9060200101517f010000000000000000000000000000000000000000000000000000000000000090047f0100000000000000000000000000000000000000000000000000000000000000028282815181101515610d7257fe5b9060200101907effffffffffffffffffffffffffffffffffffffffffffffffffffffffffffff1916908160001a9053508080600101915050610d03565b50809350505050919050565b6000600460000160009054906101000a900463ffffffff1663ffffffff168267ffffffffffffffff161415610df35760019050610df8565b600090505b919050565b828054600181600116156101000203166002900490600052602060002090601f016020900481019282601f10610e3e57805160ff1916838001178555610e6c565b82800160010185558215610e6c579182015b82811115610e6b578251825591602001919060010190610e50565b5b509050610e799190610f17565b5090565b828054828255906000526020600020908101928215610eb9579160200282015b82811115610eb8578251825591602001919060010190610e9d565b5b509050610ec69190610f17565b5090565b828054828255906000526020600020908101928215610f06579160200282015b82811115610f05578251825591602001919060010190610eea565b5b509050610f139190610f3c565b5090565b610f3991905b80821115610f35576000816000905550600101610f1d565b5090565b90565b610f5e91905b80821115610f5a576000816000905550600101610f42565b5090565b9056fea165627a7a72305820de834a10cf3d4ecd0bfa984e4856a4f61c846fb98a9e5732660363cb51bc853d0029",
  "source": "pragma solidity ^0.5.0;\n\ncontract Voting {\n\n    //ballotCreator and owner are same\n    //delete whitelist if not used\n    struct Ballot {\n        uint32 ballotId;\n        string title;\n        address ballotCreator;\n        address owner;\n    }\n\n    struct Candidates {\n        bytes32[] candidateList;\n        mapping (bytes32 => bytes32) candidateHash;\n        mapping (bytes32 => uint256) votesReceived;\n    }\n\n    //delete whitelisted if not used\n    struct Voter {\n        mapping (address => uint8) attemptedVotes;\n    }\n\n    Candidates c;\n    Voter v;\n    Ballot b;\n\n    string convertCandidate;\n    string tempTitle;\n    bytes32 tempCandidate;\n    uint256 tempVote;\n    bytes32 tempHash;\n    uint256[] tempVotes;\n    bytes32[] tempCandidates;\n    bytes32 tempEmail;\n    address owner;\n\n    constructor(uint32 _ballotId, string memory _title, address _creator) public {\n        b.ballotId = _ballotId;\n        b.title = _title;\n        b.ballotCreator = _creator;\n        b.owner = _creator;\n        owner = _creator;\n    }\n\n    modifier onlyOwner {\n        require(msg.sender == owner);\n        _;\n    }\n\n    function setCandidates(bytes32[] memory _candidates) public onlyOwner {\n        for(uint i = 0; i < _candidates.length; i++) {\n            tempCandidate = _candidates[i];\n            c.candidateList.push(tempCandidate);\n        }\n    }\n\n    function hashCandidates() public onlyOwner {\n        tempVote = 1;\n        for(uint i = 0; i < c.candidateList.length; i++) {\n            tempCandidate = c.candidateList[i];\n            convertCandidate = bytes32ToString(tempCandidate);\n            c.candidateHash[tempCandidate] = keccak256(abi.encodePacked(convertCandidate));\n            c.votesReceived[keccak256(abi.encodePacked(convertCandidate))] = tempVote;\n        }\n    }\n\n    //figure out this function more\n    //create more checks in this function\n    //try to write this function on your own after understanding app.js\n    function voteForCandidate(uint256[] memory _votes, bytes32 _email, bytes32[] memory _candidates) public {\n        //if (checkTimelimit() == false || checkVoteattempts() == false) revert();\n        //if (checkWhitelist() == true && checkifWhitelisted(_email) == false) revert();\n        tempVotes = _votes;\n        tempCandidates = _candidates;\n        v.attemptedVotes[msg.sender] += 1;\n\n        for(uint i = 0; i < tempCandidates.length; i++) {\n            tempCandidate = tempCandidates[i];\n            tempHash = c.candidateHash[tempCandidate];\n            if (validCandidate(tempHash) == false) revert();\n            tempVote = tempVotes[i];\n            c.votesReceived[tempHash] = tempVote;\n        }\n    }\n\n    // start here\n    //these functions are changed very less\n    function votesFor(bytes32 cHash) public returns (uint256){\n        if (validCandidate(cHash) == false) revert();\n        return c.votesReceived[cHash];\n    }\n\n    function totalVotesFor(bytes32 cHash) public  returns (uint256){\n        //if (checkBallottype() == false && checkTimelimit() == true) return 0;\n        if (validCandidate(cHash) == false) revert();\n        return c.votesReceived[cHash];\n    }\n\n    function bytes32ToString(bytes32 x) private pure returns (string memory) {\n        bytes memory bytesString = new bytes(32);\n        uint charCount = 0;\n        for (uint j = 0; j < 32; j++) {\n            byte char = byte(bytes32(uint(x) * 2 ** (8 * j)));\n            if (char != 0) {\n                bytesString[charCount] = char;\n                charCount++;\n            }\n        }\n        bytes memory bytesStringTrimmed = new bytes(charCount);\n        for (uint j = 0; j < charCount; j++) {\n            bytesStringTrimmed[j] = bytesString[j];\n        }\n        return string(bytesStringTrimmed);\n    }\n\n    function validCandidate(bytes32 cHash) public returns (bool) {\n        for(uint k = 0; k < c.candidateList.length; k++) {\n            tempCandidate = c.candidateList[k];\n            if (c.candidateHash[tempCandidate] == cHash) {\n                return true;\n            }\n        }\n        return false;\n    }\n\n    function candidateList(uint64 _ballotID) public view returns (bytes32[] memory) {\n        if (checkballotID(_ballotID) == false) revert();\n        return c.candidateList;\n    }\n\n    function checkballotID(uint64 ballotID) private view returns (bool) {\n        if (ballotID == b.ballotId) return true;\n        else return false;\n    }\n    //end here\n\n     function checkVoteattempts() public view returns (bool) {\n        if (v.attemptedVotes[msg.sender] >= 1) return false;\n        else return true;\n    }\n\n\n    function getTitle() public view returns (string memory) {\n        return b.title;\n    }\n}",
  "sourcePath": "/Users/ayushsethi/Desktop/BroncoVotes/contracts/Voting.sol",
  "compiler": {
    "name": "solc",
    "version": "0.5.0+commit.1d4f565a.Emscripten.clang"
  },
  "schemaVersion": "3.0.2",
  "updatedAt": "2019-04-21T13:12:47.801Z",
  "devdoc": {
    "methods": {}
  },
  "userdoc": {
    "methods": {}
  }
}