{
  "contractName": "Voting",
  "abi": [
    {
      "inputs": [
        {
          "name": "_timeLimit",
          "type": "uint32"
        },
        {
          "name": "_ballotType",
          "type": "uint8"
        },
        {
          "name": "_voteLimit",
          "type": "uint8"
        },
        {
          "name": "_ballotId",
          "type": "uint32"
        },
        {
          "name": "_title",
          "type": "string"
        },
        {
          "name": "_whitelist",
          "type": "uint8"
        },
        {
          "name": "_owner",
          "type": "address"
        }
      ],
      "payable": false,
      "stateMutability": "nonpayable",
      "type": "constructor",
      "signature": "constructor"
    },
    {
      "constant": false,
      "inputs": [
        {
          "name": "_candidates",
          "type": "bytes32[]"
        }
      ],
      "name": "setCandidates",
      "outputs": [],
      "payable": false,
      "stateMutability": "nonpayable",
      "type": "function",
      "signature": "0xd05841a0"
    },
    {
      "constant": false,
      "inputs": [
        {
          "name": "_emails",
          "type": "bytes32[]"
        }
      ],
      "name": "setWhitelisted",
      "outputs": [],
      "payable": false,
      "stateMutability": "nonpayable",
      "type": "function",
      "signature": "0xb8381c78"
    },
    {
      "constant": false,
      "inputs": [],
      "name": "hashCandidates",
      "outputs": [],
      "payable": false,
      "stateMutability": "nonpayable",
      "type": "function",
      "signature": "0x6cfd8b82"
    },
    {
      "constant": false,
      "inputs": [
        {
          "name": "_votes",
          "type": "uint256[]"
        },
        {
          "name": "_email",
          "type": "bytes32"
        },
        {
          "name": "_candidates",
          "type": "bytes32[]"
        }
      ],
      "name": "voteForCandidate",
      "outputs": [],
      "payable": false,
      "stateMutability": "nonpayable",
      "type": "function",
      "signature": "0xc9ccaea1"
    },
    {
      "constant": false,
      "inputs": [
        {
          "name": "cHash",
          "type": "bytes32"
        }
      ],
      "name": "votesFor",
      "outputs": [
        {
          "name": "",
          "type": "uint256"
        }
      ],
      "payable": false,
      "stateMutability": "nonpayable",
      "type": "function",
      "signature": "0x922133e3"
    },
    {
      "constant": false,
      "inputs": [
        {
          "name": "cHash",
          "type": "bytes32"
        }
      ],
      "name": "totalVotesFor",
      "outputs": [
        {
          "name": "",
          "type": "uint256"
        }
      ],
      "payable": false,
      "stateMutability": "nonpayable",
      "type": "function",
      "signature": "0x2f265cf7"
    },
    {
      "constant": false,
      "inputs": [
        {
          "name": "cHash",
          "type": "bytes32"
        }
      ],
      "name": "validCandidate",
      "outputs": [
        {
          "name": "",
          "type": "bool"
        }
      ],
      "payable": false,
      "stateMutability": "nonpayable",
      "type": "function",
      "signature": "0x392e6678"
    },
    {
      "constant": true,
      "inputs": [
        {
          "name": "_ballotID",
          "type": "uint64"
        }
      ],
      "name": "candidateList",
      "outputs": [
        {
          "name": "",
          "type": "bytes32[]"
        }
      ],
      "payable": false,
      "stateMutability": "view",
      "type": "function",
      "signature": "0xa711b878"
    },
    {
      "constant": true,
      "inputs": [],
      "name": "checkTimelimit",
      "outputs": [
        {
          "name": "",
          "type": "bool"
        }
      ],
      "payable": false,
      "stateMutability": "view",
      "type": "function",
      "signature": "0x5b9eb761"
    },
    {
      "constant": true,
      "inputs": [],
      "name": "checkVoteattempts",
      "outputs": [
        {
          "name": "",
          "type": "bool"
        }
      ],
      "payable": false,
      "stateMutability": "view",
      "type": "function",
      "signature": "0x6ec4847a"
    },
    {
      "constant": true,
      "inputs": [],
      "name": "checkWhitelist",
      "outputs": [
        {
          "name": "",
          "type": "bool"
        }
      ],
      "payable": false,
      "stateMutability": "view",
      "type": "function",
      "signature": "0x06f2057a"
    },
    {
      "constant": false,
      "inputs": [
        {
          "name": "email",
          "type": "bytes32"
        }
      ],
      "name": "checkifWhitelisted",
      "outputs": [
        {
          "name": "",
          "type": "bool"
        }
      ],
      "payable": false,
      "stateMutability": "nonpayable",
      "type": "function",
      "signature": "0x5374be8f"
    },
    {
      "constant": true,
      "inputs": [],
      "name": "getTimelimit",
      "outputs": [
        {
          "name": "",
          "type": "uint32"
        }
      ],
      "payable": false,
      "stateMutability": "view",
      "type": "function",
      "signature": "0x555a1ad6"
    },
    {
      "constant": true,
      "inputs": [],
      "name": "getTitle",
      "outputs": [
        {
          "name": "",
          "type": "string"
        }
      ],
      "payable": false,
      "stateMutability": "view",
      "type": "function",
      "signature": "0xff3c1a8f"
    }
  ],
  "bytecode": "0x60806040523480156200001157600080fd5b506040516200169838038062001698833981018060405260e08110156200003757600080fd5b810190808051906020019092919080519060200190929190805190602001909291908051906020019092919080516401000000008111156200007857600080fd5b828101905060208101848111156200008f57600080fd5b8151856001820283011164010000000082111715620000ad57600080fd5b5050929190602001805190602001909291908051906020019092919050505086600560000160066101000a81548163ffffffff021916908363ffffffff16021790555085600560000160006101000a81548160ff021916908360ff16021790555084600560000160056101000a81548160ff021916908360ff16021790555083600560000160016101000a81548163ffffffff021916908363ffffffff16021790555082600560010190805190602001906200016b929190620001d8565b5081600560020160006101000a81548160ff021916908360ff16021790555080601060006101000a81548173ffffffffffffffffffffffffffffffffffffffff021916908373ffffffffffffffffffffffffffffffffffffffff1602179055505050505050505062000287565b828054600181600116156101000203166002900490600052602060002090601f016020900481019282601f106200021b57805160ff19168380011785556200024c565b828001600101855582156200024c579182015b828111156200024b5782518255916020019190600101906200022e565b5b5090506200025b91906200025f565b5090565b6200028491905b808211156200028057600081600090555060010162000266565b5090565b90565b61140180620002976000396000f3fe6080604052600436106100d0576000357c0100000000000000000000000000000000000000000000000000000000900463ffffffff16806306f2057a146100d55780632f265cf714610104578063392e6678146101535780635374be8f146101a6578063555a1ad6146101f95780635b9eb761146102305780636cfd8b821461025f5780636ec4847a14610276578063922133e3146102a5578063a711b878146102f4578063b8381c781461038e578063c9ccaea114610453578063d05841a0146105b6578063ff3c1a8f1461067b575b600080fd5b3480156100e157600080fd5b506100ea61070b565b604051808215151515815260200191505060405180910390f35b34801561011057600080fd5b5061013d6004803603602081101561012757600080fd5b810190808035906020019092919050505061073c565b6040518082815260200191505060405180910390f35b34801561015f57600080fd5b5061018c6004803603602081101561017657600080fd5b81019080803590602001909291905050506107aa565b604051808215151515815260200191505060405180910390f35b3480156101b257600080fd5b506101df600480360360208110156101c957600080fd5b8101908080359060200190929190505050610825565b604051808215151515815260200191505060405180910390f35b34801561020557600080fd5b5061020e61088c565b604051808263ffffffff1663ffffffff16815260200191505060405180910390f35b34801561023c57600080fd5b506102456108a9565b604051808215151515815260200191505060405180910390f35b34801561026b57600080fd5b506102746108e0565b005b34801561028257600080fd5b5061028b610ada565b604051808215151515815260200191505060405180910390f35b3480156102b157600080fd5b506102de600480360360208110156102c857600080fd5b8101908080359060200190929190505050610b5c565b6040518082815260200191505060405180910390f35b34801561030057600080fd5b506103376004803603602081101561031757600080fd5b81019080803567ffffffffffffffff169060200190929190505050610b95565b6040518080602001828103825283818151815260200191508051906020019060200280838360005b8381101561037a57808201518184015260208101905061035f565b505050509050019250505060405180910390f35b34801561039a57600080fd5b50610451600480360360208110156103b157600080fd5b81019080803590602001906401000000008111156103ce57600080fd5b8201836020820111156103e057600080fd5b8035906020019184602083028401116401000000008311171561040257600080fd5b919080806020026020016040519081016040528093929190818152602001838360200280828437600081840152601f19601f820116905080830192505050505050509192919290505050610c0b565b005b34801561045f57600080fd5b506105b46004803603606081101561047657600080fd5b810190808035906020019064010000000081111561049357600080fd5b8201836020820111156104a557600080fd5b803590602001918460208302840111640100000000831117156104c757600080fd5b919080806020026020016040519081016040528093929190818152602001838360200280828437600081840152601f19601f820116905080830192505050505050509192919290803590602001909291908035906020019064010000000081111561053157600080fd5b82018360208201111561054357600080fd5b8035906020019184602083028401116401000000008311171561056557600080fd5b919080806020026020016040519081016040528093929190818152602001838360200280828437600081840152601f19601f820116905080830192505050505050509192919290505050610cd6565b005b3480156105c257600080fd5b50610679600480360360208110156105d957600080fd5b81019080803590602001906401000000008111156105f657600080fd5b82018360208201111561060857600080fd5b8035906020019184602083028401116401000000008311171561062a57600080fd5b919080806020026020016040519081016040528093929190818152602001838360200280828437600081840152601f19601f820116905080830192505050505050509192919290505050610e92565b005b34801561068757600080fd5b50610690610f5c565b6040518080602001828103825283818151815260200191508051906020019080838360005b838110156106d05780820151818401526020810190506106b5565b50505050905090810190601f1680156106fd5780820380516001836020036101000a031916815260200191505b509250505060405180910390f35b60006001600560020160009054906101000a900460ff1660ff1614156107345760019050610739565b600090505b90565b6000801515610749611001565b151514801561076357506001151561075f6108a9565b1515145b1561077157600090506107a5565b6000151561077e836107aa565b1515141561078b57600080fd5b600060020160008381526020019081526020016000205490505b919050565b600080600090505b600080018054905081101561081a5760008001818154811015156107d257fe5b9060005260206000200154600a819055508260006001016000600a54815260200190815260200160002054141561080d576001915050610820565b80806001019150506107b2565b50600090505b919050565b600080600090505b6003600001805490508110156108815760036000018181548110151561084f57fe5b9060005260206000200154600f8190555082600f541415610874576001915050610887565b808060010191505061082d565b50600090505b919050565b6000600560000160069054906101000a900463ffffffff16905090565b6000600560000160069054906101000a900463ffffffff1663ffffffff16421015156108d857600090506108dd565b600190505b90565b601060009054906101000a900473ffffffffffffffffffffffffffffffffffffffff1673ffffffffffffffffffffffffffffffffffffffff163373ffffffffffffffffffffffffffffffffffffffff1614151561093c57600080fd5b6001600b8190555060008090505b6000800180549050811015610ad757600080018181548110151561096a57fe5b9060005260206000200154600a81905550610986600a54611032565b6008908051906020019061099b929190611271565b50600860405160200180828054600181600116156101000203166002900480156109fc5780601f106109da5761010080835404028352918201916109fc565b820191906000526020600020905b8154815290600101906020018083116109e8575b50509150506040516020818303038152906040528051906020012060006001016000600a54815260200190815260200160002081905550600b546000600201600060086040516020018082805460018160011615610100020316600290048015610a9d5780601f10610a7b576101008083540402835291820191610a9d565b820191906000526020600020905b815481529060010190602001808311610a89575b505091505060405160208183030381529060405280519060200120815260200190815260200160002081905550808060010191505061094a565b50565b6000600560000160059054906101000a900460ff1660ff16600360010160003373ffffffffffffffffffffffffffffffffffffffff1673ffffffffffffffffffffffffffffffffffffffff16815260200190815260200160002060009054906101000a900460ff1660ff161415610b545760009050610b59565b600190505b90565b6000801515610b6a836107aa565b15151415610b7757600080fd5b60006002016000838152602001908152602001600020549050919050565b606060001515610ba48361122f565b15151415610bb157600080fd5b60008001805480602002602001604051908101604052809291908181526020018280548015610bff57602002820191906000526020600020905b815481526020019060010190808311610beb575b50505050509050919050565b601060009054906101000a900473ffffffffffffffffffffffffffffffffffffffff1673ffffffffffffffffffffffffffffffffffffffff163373ffffffffffffffffffffffffffffffffffffffff16141515610c6757600080fd5b60008090505b8151811015610cd2578181815181101515610c8457fe5b90602001906020020151600f819055506003600001600f5490806001815401808255809150509060018203906000526020600020016000909192909190915055508080600101915050610c6d565b5050565b60001515610ce26108a9565b15151480610cfb575060001515610cf7610ada565b1515145b15610d0557600080fd5b60011515610d1161070b565b1515148015610d2c575060001515610d2883610825565b1515145b15610d3657600080fd5b82600d9080519060200190610d4c9291906112f1565b5080600e9080519060200190610d6392919061133e565b506001600360010160003373ffffffffffffffffffffffffffffffffffffffff1673ffffffffffffffffffffffffffffffffffffffff16815260200190815260200160002060008282829054906101000a900460ff160192506101000a81548160ff021916908360ff16021790555060008090505b600e80549050811015610e8c57600e81815481101515610df457fe5b9060005260206000200154600a8190555060006001016000600a54815260200190815260200160002054600c8190555060001515610e33600c546107aa565b15151415610e4057600080fd5b600d81815481101515610e4f57fe5b9060005260206000200154600b81905550600b5460006002016000600c548152602001908152602001600020819055508080600101915050610dd8565b50505050565b601060009054906101000a900473ffffffffffffffffffffffffffffffffffffffff1673ffffffffffffffffffffffffffffffffffffffff163373ffffffffffffffffffffffffffffffffffffffff16141515610eee57600080fd5b60008090505b8151811015610f58578181815181101515610f0b57fe5b90602001906020020151600a8190555060008001600a5490806001815401808255809150509060018203906000526020600020016000909192909190915055508080600101915050610ef4565b5050565b606060056001018054600181600116156101000203166002900480601f016020809104026020016040519081016040528092919081815260200182805460018160011615610100020316600290048015610ff75780601f10610fcc57610100808354040283529160200191610ff7565b820191906000526020600020905b815481529060010190602001808311610fda57829003601f168201915b5050505050905090565b60006001600560000160009054906101000a900460ff1660ff16141561102a576000905061102f565b600190505b90565b60608060206040519080825280601f01601f1916602001820160405280156110695781602001600182028038833980820191505090505b509050600080905060008090505b60208110156111385760008160080260020a866001900402600102905060007f010000000000000000000000000000000000000000000000000000000000000002817effffffffffffffffffffffffffffffffffffffffffffffffffffffffffffff191614151561112a578084848151811015156110f157fe5b9060200101907effffffffffffffffffffffffffffffffffffffffffffffffffffffffffffff1916908160001a90535082806001019350505b508080600101915050611077565b506060816040519080825280601f01601f19166020018201604052801561116e5781602001600182028038833980820191505090505b50905060008090505b8281101561122357838181518110151561118d57fe5b9060200101517f010000000000000000000000000000000000000000000000000000000000000090047f01000000000000000000000000000000000000000000000000000000000000000282828151811015156111e657fe5b9060200101907effffffffffffffffffffffffffffffffffffffffffffffffffffffffffffff1916908160001a9053508080600101915050611177565b50809350505050919050565b6000600560000160019054906101000a900463ffffffff1663ffffffff168267ffffffffffffffff161415611267576001905061126c565b600090505b919050565b828054600181600116156101000203166002900490600052602060002090601f016020900481019282601f106112b257805160ff19168380011785556112e0565b828001600101855582156112e0579182015b828111156112df5782518255916020019190600101906112c4565b5b5090506112ed919061138b565b5090565b82805482825590600052602060002090810192821561132d579160200282015b8281111561132c578251825591602001919060010190611311565b5b50905061133a919061138b565b5090565b82805482825590600052602060002090810192821561137a579160200282015b8281111561137957825182559160200191906001019061135e565b5b50905061138791906113b0565b5090565b6113ad91905b808211156113a9576000816000905550600101611391565b5090565b90565b6113d291905b808211156113ce5760008160009055506001016113b6565b5090565b9056fea165627a7a723058201c09137b6c632bc2db9cde1aabce3001937ddebd9ea967c218a256cabdd4842c0029",
  "source": "pragma solidity ^0.5.0;\n\ncontract Voting {\n\n    struct Ballot {\n        uint8 ballotType;\n        uint32 ballotId;\n        uint8 voteLimit;\n        uint32 timeLimit;\n        string title;\n        uint8 whitelist;\n    }\n\n    struct Candidates {\n        bytes32[] candidateList;\n        mapping (bytes32 => bytes32) candidateHash;\n        mapping (bytes32 => uint256) votesReceived;\n    }\n\n    struct Voter {\n        bytes32[] whitelisted;\n        mapping (address => uint8) attemptedVotes;\n    }\n\n    Candidates c;\n    Voter v;\n    Ballot b;\n\n    string convertCandidate;\n    string tempTitle;\n    bytes32 tempCandidate;\n    uint256 tempVote;\n    bytes32 tempHash;\n    uint256[] tempVotes;\n    bytes32[] tempCandidates;\n    bytes32 tempEmail;\n    address owner;\n\n    constructor(uint32 _timeLimit, uint8 _ballotType, uint8 _voteLimit, uint32 _ballotId, string memory _title, uint8 _whitelist, address _owner) public {\n        b.timeLimit = _timeLimit;\n        b.ballotType = _ballotType;\n        b.voteLimit = _voteLimit;\n        b.ballotId = _ballotId;\n        b.title = _title;\n        b.whitelist = _whitelist;\n\n        owner = _owner;\n    }\n\n    modifier onlyOwner {\n        require(msg.sender == owner);\n        _;\n    }\n\n    function setCandidates(bytes32[] memory _candidates) public onlyOwner {\n        for(uint i = 0; i < _candidates.length; i++) {\n            tempCandidate = _candidates[i];\n            c.candidateList.push(tempCandidate);\n        }\n    }\n\n    function setWhitelisted(bytes32[] memory _emails) public onlyOwner {\n        for(uint i = 0; i < _emails.length; i++) {\n            tempEmail = _emails[i];\n            v.whitelisted.push(tempEmail);\n        }\n    }\n\n    function hashCandidates() public onlyOwner {\n        tempVote = 1;\n        for(uint i = 0; i < c.candidateList.length; i++) {\n            tempCandidate = c.candidateList[i];\n            convertCandidate = bytes32ToString(tempCandidate);\n            c.candidateHash[tempCandidate] = keccak256(abi.encodePacked(convertCandidate));\n            c.votesReceived[keccak256(abi.encodePacked(convertCandidate))] = tempVote;\n        }\n    }\n\n    function voteForCandidate(uint256[] memory _votes, bytes32 _email, bytes32[] memory _candidates) public {\n        if (checkTimelimit() == false || checkVoteattempts() == false) revert();\n        if (checkWhitelist() == true && checkifWhitelisted(_email) == false) revert();\n        tempVotes = _votes;\n        tempCandidates = _candidates;\n        v.attemptedVotes[msg.sender] += 1;\n\n        for(uint i = 0; i < tempCandidates.length; i++) {\n            tempCandidate = tempCandidates[i];\n            tempHash = c.candidateHash[tempCandidate];\n            if (validCandidate(tempHash) == false) revert();\n            tempVote = tempVotes[i];\n            c.votesReceived[tempHash] = tempVote;\n        }\n    }\n\n    function votesFor(bytes32 cHash) public returns (uint256){\n        if (validCandidate(cHash) == false) revert();\n        return c.votesReceived[cHash];\n    }\n\n    function totalVotesFor(bytes32 cHash) public  returns (uint256){\n        if (checkBallottype() == false && checkTimelimit() == true) return 0;\n        if (validCandidate(cHash) == false) revert();\n        return c.votesReceived[cHash];\n    }\n\n    function bytes32ToString(bytes32 x) private pure returns (string memory) {\n        bytes memory bytesString = new bytes(32);\n        uint charCount = 0;\n        for (uint j = 0; j < 32; j++) {\n            byte char = byte(bytes32(uint(x) * 2 ** (8 * j)));\n            if (char != 0) {\n                bytesString[charCount] = char;\n                charCount++;\n            }\n        }\n        bytes memory bytesStringTrimmed = new bytes(charCount);\n        for (uint j = 0; j < charCount; j++) {\n            bytesStringTrimmed[j] = bytesString[j];\n        }\n        return string(bytesStringTrimmed);\n    }\n\n    function validCandidate(bytes32 cHash) public returns (bool) {\n        for(uint k = 0; k < c.candidateList.length; k++) {\n            tempCandidate = c.candidateList[k];\n            if (c.candidateHash[tempCandidate] == cHash) {\n                return true;\n            }\n        }\n        return false;\n    }\n\n    function candidateList(uint64 _ballotID) public view returns (bytes32[] memory) {\n        if (checkballotID(_ballotID) == false) revert();\n        return c.candidateList;\n    }\n\n    function checkTimelimit() public view returns (bool) {\n        if (block.timestamp >= b.timeLimit) return false;\n        else return true;\n    }\n\n    function checkBallottype() private view returns (bool) {\n        if (b.ballotType == 1) return false;\n        else return true;\n    }\n\n    function checkballotID(uint64 ballotID) private view returns (bool) {\n        if (ballotID == b.ballotId) return true;\n        else return false;\n    }\n\n    function checkVoteattempts() public view returns (bool) {\n        if (v.attemptedVotes[msg.sender] == b.voteLimit) return false;\n        else return true;\n    }\n\n    function checkWhitelist() public view returns (bool) {\n        if (b.whitelist == 1) return true;\n        else return false;\n    }\n\n    function checkifWhitelisted(bytes32 email) public  returns (bool) {\n        for(uint j = 0; j < v.whitelisted.length; j++) {\n            tempEmail = v.whitelisted[j];\n            if (tempEmail == email) {\n                return true;\n            }\n        }\n        return false;\n    }\n\n    function getTimelimit() public view returns (uint32) {\n        return b.timeLimit;\n    }\n\n    function getTitle() public view returns (string memory) {\n        return b.title;\n    }\n\n\n}\n",
  "sourcePath": "/Users/ayushsethi/Desktop/BroncoVotes/contracts/Voting.sol",
  "compiler": {
    "name": "solc",
    "version": "0.5.0+commit.1d4f565a.Emscripten.clang"
  },
  "schemaVersion": "3.0.2",
  "updatedAt": "2019-04-20T16:34:59.332Z",
  "devdoc": {
    "methods": {}
  },
  "userdoc": {
    "methods": {}
  }
}